{
  "contractName": "TodoList",
  "abi": [
    {
      "constant": true,
      "inputs": [],
      "name": "taskCount",
      "outputs": [
        {
          "internalType": "uint256",
          "name": "",
          "type": "uint256"
        }
      ],
      "payable": false,
      "stateMutability": "view",
      "type": "function"
    }
  ],
  "bytecode": "0x608060405260008055348015601357600080fd5b506080806100226000396000f3fe6080604052348015600f57600080fd5b506004361060285760003560e01c8063b6cb58a514602d575b600080fd5b60336045565b60408051918252519081900360200190f35b6000548156fea265627a7a72315820bcdd624ea83531c21be5c46649851f7edc20f2fcfdd0baf98b26f25a0db2588c64736f6c63430005100032",
  "source": "//SPDX-License-Identifier: MIT\r\npragma solidity >=0.5.0 < 0.9.0;\r\n\r\ncontract TodoList{\r\n   uint public taskCount = 0;\r\n}",
  "sourcePath": "E:\\PROGRAMMING\\BLOCKCHAIN\\eth-todo-list\\contracts\\TodoList.sol",
  "compiler": {
    "name": "solc",
    "version": "0.5.16+commit.9c3226ce.Emscripten.clang"
  },
  "schemaVersion": "3.4.12",
  "updatedAt": "2023-03-13T06:22:58.103Z",
  "networkType": "ethereum",
  "devdoc": {
    "methods": {}
  },
  "userdoc": {
    "methods": {}
  }
}